:100000000C942A000C943F000C943F000C943F0089
:100010000C943F000C943F000C943F000C943F0064
:100020000C943F000C943F000C943F000C943F0054
:100030000C943F000C943F000C943F000C943F0044
:100040000C943F000C943F000C943F000C943F0034
:100050000C943F0011241FBECFE5D8E0DEBFCDBF1A
:1000600010E0A0E6B0E0EEEFF1E002C005900D92E6
:10007000A836B107D9F70E944E000C94FD000C94ED
:100080000000D0983D9A86B1856886B90895369A61
:10009000349BFECF349A85B190E008950E949C0075
:1000A0000E9441008DE292E20197F1F700C000004A
:1000B00088E30E94A20089EF90E00197F1F700C069
:1000C00000008EE00E94A20089EF90E00197F1F716
:1000D00000C0000081E00E94A20083EF91E0019740
:1000E000F1F700C0000086E00E94A2000F2EF4E6A7
:1000F000EF2EF12CF02D0AE010E080E80E94A20023
:1001000080E690E00E94C6000E944700B7010E946E
:10011000D500EC0180E3860F0E94B400CE01B80147
:100120000E94D500C82F80E3860F0E94B40080E3B0
:100130008C0F0E94B400E1CF8FEF84BB87B3876040
:1001400087BB0895C098C29885BBC19A89EF90E09B
:100150000197F1F700C00000C19889EF90E0019786
:10016000F1F700C000000895C09AC29885BBC19AFB
:1001700089EF90E00197F1F700C00000C19889EF86
:1001800090E00197F1F700C000000895CF93DF934E
:10019000EC018881882331F021960E94B400899176
:1001A0008111FBCFDF91CF91089597FB072E16F4B5
:1001B000009407D077FD09D00E94E90007FC05D024
:1001C0003EF4909581959F4F0895709561957F4F6E
:1001D0000895AA1BBB1B51E107C0AA1FBB1FA6178E
:1001E000B70710F0A61BB70B881F991F5A95A9F7E0
:0E01F00080959095BC01CD010895F894FFCF45
:0801FE00414443203D200000B4
:00000001FF
