S01700004763634170706C69636174696F6E312E737265635B
S11300000C942A000C943F000C943F000C943F0085
S11300100C943F000C943F000C943F000C943F0060
S11300200C943F000C943F000C943F000C943F0050
S11300300C943F000C943F000C943F000C943F0040
S11300400C943F000C943F000C943F000C943F0030
S11300500C943F0011241FBECFE5D8E0DEBFCDBF16
S113006010E0A0E6B0E0ECE4F2E002C005900D92EE
S1130070A836B107D9F70E945A000C9424010C94B5
S1130080000086B1856886B908959AB321E030E00E
S1130090082E02C0220F331F0A94E2F72095292369
S11300A02ABB87B93D9A369A349BFECF349A85B1E0
S11300B090E00895BB9A0E94C3000E9441008DE223
S11300C092E20197F1F700C0000088E30E94C900A2
S11300D089EF90E00197F1F700C000008EE00E94E4
S11300E0C90089EF90E00197F1F700C0000081E0BA
S11300F00E94C90083EF91E00197F1F700C000006E
S113010086E00E94C9000F2EF4EFEF2EFF24F39433
S1130110F02D04E610E0CAE0D0E080E80E94C900B7
S113012080E690E00E94ED0080E090E00E944500AF
S11301308E9D90018F9D300D9E9D300D1124332393
S113014014F421503F4F832F932F990F990B8F3124
S1130150910514F0C39A01C0C398B8010E94FC0031
S11301606C0180E3860F0E94DB00C601BE010E9481
S1130170FC00D82E80E3860F0E94DB0080E38D0D07
S11301800E94DB00CACF8FEF84BB87B3876087BB35
S11301900895C098C29885BBC19A89EF90E00197F1
S11301A0F1F700C00000C19889EF90E00197F1F7E2
S11301B000C000000895C09AC29885BBC19A89EF17
S11301C090E00197F1F700C00000C19889EF90E03A
S11301D00197F1F700C000000895CF93DF93EC017D
S11301E08881882331F021960E94DB008991811156
S11301F0FBCFDF91CF91089597FB072E16F400945F
S113020007D077FD09D00E94100107FC05D03EF409
S1130210909581959F4F0895709561957F4F0895AE
S1130220AA1BBB1B51E107C0AA1FBB1FA617B70718
S113023010F0A61BB70B881F991F5A95A9F7809534
S10F02409095BC01CD010895F894FFCF07
S10B024C54656D70203D200093
S9030000FC
