S012000054494D4552305F5245562E7372656315
S11300000C942A000C9434000C9434000C943400A6
S11300100C9434000C9434000C9434000C9434008C
S11300200C9434000C9434000C9434000C9434007C
S11300300C9434000C9434000C9434000C9434006C
S11300400C9434000C9434000C9434000C9434005C
S11300500C94340011241FBECFE5D8E0DEBFCDBF21
S11300600E9450000C945C000C940000BB9A83B76F
S1130070886483BF83B7836083BF83B7806283BF91
S113008008958CBF0895D0983D9A86B1856886B945
S11300900895369A349BFECF349A85B190E0089542
S11300A00E9443000E94360081E00E9441000E94A9
S10F00B049000E944100FBCFF894FFCFF0
S9030000FC
