:100000000C942A000C9434000C9434000C943400AA
:100010000C9434000C9434000C9434000C94340090
:100020000C9434000C9434000C9434000C94340080
:100030000C9434000C9434000C9434000C94340070
:100040000C9434000C9434000C9434000C94340060
:100050000C94340011241FBECFE5D8E0DEBFCDBF25
:100060000E9443000C945C000C940000BB9A83B780
:10007000886483BF83B7836083BF83B7806283BF95
:1000800008958CBF08950E94360081E00E944100CF
:10009000C0E0D0E000E010E08C2F0E94410087EA31
:1000A00091E60197F1F700C000002196CF3FD105FE
:0C00B0009CF3C02FD12FF0CFF894FFCFAD
:00000001FF
