S012000054494D4552305F5245562E7372656315
S11300000C942A000C9434000C9434000C943400A6
S11300100C9434000C9434000C9434000C9434008C
S11300200C9434000C9434000C9434000C9434007C
S11300300C9434000C9434000C9434000C9434006C
S11300400C9434000C9434000C9434000C9434005C
S11300500C94340011241FBECFE5D8E0DEBFCDBF21
S11300600E9438000C943E000C94000008950895FA
S11300700E9436008DE70E943700FFCFF894FFCF2F
S9030000FC
